{
  "contractName": "TransferWidthLog",
  "abi": [
    {
      "anonymous": false,
      "inputs": [
        {
          "indexed": true,
          "internalType": "address",
          "name": "from",
          "type": "address"
        },
        {
          "indexed": true,
          "internalType": "address",
          "name": "to",
          "type": "address"
        },
        {
          "indexed": false,
          "internalType": "uint256",
          "name": "amount",
          "type": "uint256"
        },
        {
          "indexed": false,
          "internalType": "uint256",
          "name": "timestamp",
          "type": "uint256"
        }
      ],
      "name": "TransferLog",
      "type": "event"
    },
    {
      "inputs": [
        {
          "internalType": "address payable",
          "name": "_to",
          "type": "address"
        }
      ],
      "name": "transferAndLog",
      "outputs": [],
      "stateMutability": "payable",
      "type": "function"
    },
    {
      "inputs": [],
      "name": "getBalance",
      "outputs": [
        {
          "internalType": "uint256",
          "name": "",
          "type": "uint256"
        }
      ],
      "stateMutability": "view",
      "type": "function"
    }
  ],
  "bytecode": "0x608060405234801561001057600080fd5b50610538806100206000396000f3fe608060405260043610610046576000357c01000000000000000000000000000000000000000000000000000000009004806312065fe01461004b578063ad1ad25214610076575b600080fd5b34801561005757600080fd5b50610060610092565b60405161006d9190610293565b60405180910390f35b610090600480360381019061008b9190610311565b6100b1565b005b60003073ffffffffffffffffffffffffffffffffffffffff1631905090565b600073ffffffffffffffffffffffffffffffffffffffff168173ffffffffffffffffffffffffffffffffffffffff1603610120576040517f08c379a00000000000000000000000000000000000000000000000000000000081526004016101179061039b565b60405180910390fd5b60003411610163576040517f08c379a000000000000000000000000000000000000000000000000000000000815260040161015a90610407565b60405180910390fd5b60008173ffffffffffffffffffffffffffffffffffffffff163460405161018990610458565b60006040518083038185875af1925050503d80600081146101c6576040519150601f19603f3d011682016040523d82523d6000602084013e6101cb565b606091505b505090508061020f576040517f08c379a0000000000000000000000000000000000000000000000000000000008152600401610206906104b9565b60405180910390fd5b8173ffffffffffffffffffffffffffffffffffffffff163373ffffffffffffffffffffffffffffffffffffffff167f76053e3169c911d80968b33411f97b76916293d20f5d5a47b785c09b63c0280f344260405161026e9291906104d9565b60405180910390a35050565b6000819050919050565b61028d8161027a565b82525050565b60006020820190506102a86000830184610284565b92915050565b600080fd5b600073ffffffffffffffffffffffffffffffffffffffff82169050919050565b60006102de826102b3565b9050919050565b6102ee816102d3565b81146102f957600080fd5b50565b60008135905061030b816102e5565b92915050565b600060208284031215610327576103266102ae565b5b6000610335848285016102fc565b91505092915050565b600082825260208201905092915050565b7f696e76616c696420616464726573730000000000000000000000000000000000600082015250565b6000610385600f8361033e565b91506103908261034f565b602082019050919050565b600060208201905081810360008301526103b481610378565b9050919050565b7f416d6f756e74206d7573742062652067726561746572207468616e2030000000600082015250565b60006103f1601d8361033e565b91506103fc826103bb565b602082019050919050565b60006020820190508181036000830152610420816103e4565b9050919050565b600081905092915050565b50565b6000610442600083610427565b915061044d82610432565b600082019050919050565b600061046382610435565b9150819050919050565b7f4661696c656420746f2073656e64204574686572000000000000000000000000600082015250565b60006104a360148361033e565b91506104ae8261046d565b602082019050919050565b600060208201905081810360008301526104d281610496565b9050919050565b60006040820190506104ee6000830185610284565b6104fb6020830184610284565b939250505056fea26469706673582212208444a7a58344bc500e4358d4ea83224a580fe30ffb0af4607a35d33d889c50c364736f6c63430008150033",
  "immutableReferences": {},
  "source": "// SPDX-License-Identifier: GPL-3.0\n\npragma solidity >=0.7.0 <0.9.0;\n\ncontract TransferWidthLog {\n    event TransferLog(\n        address indexed from,\n        address indexed to,\n        uint256 amount,\n        uint256 timestamp\n    );\n    function transferAndLog(address payable _to) external payable {\n        require(_to != address(0), \"invalid address\");\n        require(msg.value > 0, \"Amount must be greater than 0\");\n        (bool sent, ) = _to.call{value: msg.value}(\"\");\n        require(sent, \"Failed to send Ether\");\n\n        emit TransferLog(msg.sender, _to, msg.value, block.timestamp);\n    }\n\n    function getBalance() external view returns (uint256) {\n        return address(this).balance;\n    }\n}\n",
  "sourcePath": "/Users/lisansang/kuswin/truffle/contracts/Transfer.sol",
  "compiler": {
    "name": "solc",
    "version": "0.8.21+commit.d9974bed.Emscripten.clang"
  },
  "schemaVersion": "3.4.16",
  "updatedAt": "2025-09-02T14:48:23.223Z",
  "devdoc": {
    "kind": "dev",
    "methods": {},
    "version": 1
  },
  "userdoc": {
    "kind": "user",
    "methods": {},
    "version": 1
  }
}